:0300000002088B68
:0C088B00787FE4F6D8FD7581090208971B
:03000300020800F0
:10080000C0E0C0F0C083C082C0D075D000C000C0BE
:0D08100001C002C003C004C005C006C0073F
:10081D00D2A0C2A47508007509001208780509E573
:10082D000970020508C39414E5086480948040EAB9
:10083D00C2A0D2A47508007509001208780509E553
:10084D000970020508C39414E5086480948040EA99
:10085D00D007D006D005D004D003D002D001D000EF
:0B086D00D0D0D082D083D0F0D0E03299
:0B089700C28875A881C2A0C2A480FA2C
:10087800758901758C4B758A26D28C308DFDC28C9A
:03088800C28D22FC
:00000001FF
