:03000000020800F3
:0C080000787FE4F6D8FD758120020847DF
:1008D60052455354415254494E4700535749544385
:1008E600482050524553534544004E4F54205052D1
:0608F60045535345440088
:02098B00C100A9
:10092100E4FDFCEFFBC3ED9BEC94005015E4FBFAF6
:100931000BBB00010ABA04F8BBFBF50DBD00010CAD
:0209410080E153
:010943002291
:0E096C008FA0C2B0D2B17F02120921C2B12207
:0E097A008FA0D2B0D2B17F02120921C2B122E9
:1008FC008B088A09890AAB08AA09A90A120944605B
:10090C0013050AE50A7002050914F9120944FF12CD
:05091C00097A80E222CF
:0F095D007F3812096C7F0C12096C7F0102096C44
:0300130002098857
:03098800D2003268
:10088C0012095D7BFF7A0879D61208FC7FE8120901
:10089C00217F0112096C75A884D28A3000177F0160
:1008AC0012096C7BFF7A0879E11208FC7FE81209C7
:1008BC0021C20080E67F0112096C7BFF7A0879F077
:0A08CC001208FC7FE812092180D118
:10080C0002088CE493A3F8E493A34003F68001F26E
:10081C0008DFF48029E493A3F85407240CC8C333ED
:10082C00C4540F4420C8834004F456800146F6DFBC
:10083C00E4800B010204081020408090098BE47EB8
:10084C00019360BCA3FF543F30E509541FFEE493B1
:10085C00A360010ECF54C025E060A840B8E493A378
:10086C00FAE493A3F8E493A3C8C582C8CAC583CAA3
:10087C00F0A3C8C582C8CAC583CADFE9DEE780BE5B
:01098D000069
:10094400BB010689828A83E0225002E722BBFE02B1
:09095400E32289828A83E49322E4
:00000001FF
